:020000040800F2
:100000000006022001020008590F00085D0F0008D9
:10001000B50F00085D0F0008890F000803020008F3
:10002000030200080302000803020008AD280008CC
:10003000030200080302000803020008030200088C
:10004000030200080302000803020008030200087C
:100050000302000803020008413A0008693A000858
:10006000913A0008B93A0008E13A00080302000892
:10007000030200080302000803020008030200084C
:10008000030200080302000803020008030200083C
:10009000030200080302000803020008093B0008ED
:1000A000030200080302000803020008030200081C
:1000B000053C0008030200080302000803020008D0
:1000C00003020008030200080302000803020008FC
:1000D0000302000803020008DD3B000803020008D9
:1000E0006D3B000803020008030200080302000839
:1000F00003020008030200080302000803020008CC
:1001000003020008030200080302000803020008BB
:1001100003020008030200080302000803020008AB
:10012000030200080302000803020008030200089B
:10013000030200080302000803020008030200088B
:100140000302000803020008030200087D300008D3
:10015000030200080302000803020008030200086B
:10016000030200080302000803020008030200085B
:10017000030200080302000803020008030200084B
:100180000302000803020008F13B00080302000814
:10019000030200080302000803020008030200082B
:1001A000030200080302000803020008030200081B
:1001B000030200080302000803020008030200080B
:1001C00003020008030200080302000803020008FB
:1001D00003020008030200080302000803020008EB
:1001E00003020008030200080302000803020008DB
:1001F00003020008030200080302000803020008CB
:1002000002E000F000F8FEE772B6394880F3088893
:10021000384880F3098838484EF60851CEF200017C
:10022000086040F20000CCF200004EF63471CEF2CD
:1002300000010860BFF34F8FBFF36F8F40F20000E3
:10024000C0F2F0004EF68851CEF200010860BFF314
:100250004F8FBFF36F8F4FF00000E1EE100A4EF6A4
:100260003C71CEF200010860062080F31488BFF3D1
:100270006F8F02F07FFB03F079FA4FF055301F4982
:100280001B4A91423CBF41F8040BFAE71C49194A4A
:1002900091423CBF41F8040BFAE71A491A4A1B4B3A
:1002A0009A423EBF51F8040B42F8040BF8E70020D5
:1002B0001749184A91423CBF41F8040BFAE702F093
:1002C0009DFB03F0BDFA144C144DAC4203DA54F814
:1002D000041B8847F9E700F041F8114C114DAC427E
:1002E00003DA54F8041B8847F9E702F085BB0000E5
:1002F0000006022000220220000000080000022068
:100300000006022020400008002202205022022085
:1003100050220220C432022000020008000200081D
:1003200000020008000200082DE9F04F2DED108AB0
:10033000C1F80CD0D0F80CD0BDEC108ABDE8F08F1D
:10034000002383F311882846A047002001F0DAFE3D
:10035000FEE701F05BFE00DFFEE7000070B5322330
:100360001F4C00256FF07F0623701F236570A5705A
:10037000E57025716571A571E57125726672A372CC
:10038000E57200F0D5FC20B10F2325726672A372CE
:10039000E57202F04DFA044602F082FA0546D0B941
:1003A000104B9C4219D001339C4241F2883412BF59
:1003B000054600240125002002F044FA0DB100F0AA
:1003C0005BF800F069FD00F0F9FB204600F0F4F85E
:1003D00000F052F8F9E70024EDE70446EBE700BF30
:1003E00050220220010007B008B500F0B3FBA0F1D5
:1003F00020035842584108BD054B07B51B88022110
:1004000001A8ADF8043000F0C3FB03B05DF804FBB5
:10041000A03C000810B5202383F311881248C3685C
:100420000BB101F00BFF0023104A4FF47A710E4814
:1004300001F0B2FE002383F311880D4C236813B141
:100440002368013B2360636813B16368013B636009
:10045000084B1B7833B9636823B9022000F084FC91
:100460003223636010BD00BF5C2202201504000827
:100470007823022070220220454B46492DE9F041A5
:1004800053F8042F013201D1BDE8F0818B42F7D13E
:10049000414C424B22689A4278D9414B9B6803F108
:1004A000006303F500439A4270D2002000F0A0FBE5
:1004B00002203C4B187000F04BFC3B4B1A6C0022A6
:1004C0001A64196E1A66196E596C5A64596E5A6616
:1004D000596E596941F080015961596921F08001D3
:1004E00059615969196941F000511961196921F07F
:1004F000005119611B6972B62C4B2D490B601D68A8
:100500002468BFF34F8FBFF36F8F2A4BC3F884204B
:10051000BFF34F8F5A6922F480325A61BFF34F8F75
:10052000D3F8802043F6E07EC2F3C906C2F34E3210
:10053000B707520102EA0E0838463146013948EA47
:10054000000C00F14040B1F1FF3FC3F874C2F5D197
:10055000203A12F1200FEDD1BFF34F8FBFF36F8F11
:10056000BFF34F8FBFF36F8F5A6922F400325A6185
:100570000022C3F85022BFF34F8FBFF36F8F2023A9
:1005800083F31188AD4685F308882047BDE8F081E4
:10059000FC7F00081C80000804800008FF7F000822
:1005A0005022022070220220003802400080000801
:1005B00008ED00E000ED00E02DE9F04F99B0B94DF5
:1005C0002022FF21009010A8AC6800F007FCB64A7A
:1005D00001951378A3B90121B4481170C360202399
:1005E00083F31188C3680BB101F028FE0023B04AE1
:1005F0004FF47A71AD4801F0CFFD002383F31188E9
:10060000009BAC4A03B113600026AB4B009DB24681
:100610003746B1461E7056600293012000F098FBE9
:10062000002D00F02582A34B1B68002B40F0208298
:1006300019B0BDE8F08F0220FFF7D6FE002840F089
:100640001082009B02210BA8002E08BF1D469B4B69
:100650001B88ADF82C3000F09BFADEE74FF47A707F
:1006600000F078FAB0F10008EBDB0220FFF7BCFEE7
:100670000028E6D008F1FF38B8F1040F00F2F3814A
:10068000DFE808F0031E2124270018A80523042111
:1006900040F8343D00F07CFA01234FF0000903FAE2
:1006A00008F848EA0A0A5FFA8AFA00F0EBFB27B179
:1006B0000AF00B030B2B08BF0025FFF79DFEACE7EC
:1006C00004217848E6E704217D48E3E704217D48DA
:1006D000E0E74FF01C09484609F1040900F08AFAE6
:1006E00004210B900BA800F053FAB9F12C0FF2D1B2
:1006F000D2E7002FA5D00AF00B030B2BA1D10220CB
:10070000FFF772FE804600289BD001206A4E00F061
:100710006FFA00270220307000F01AFB5FFA87FBA7
:10072000584600F075FA054688B15846013700F082
:100730007FFA0028F2D146460025634B02210BA820
:1007400047461B88ADF82C3000F022FA65E70123FC
:100750002C460220337000F0EDFA019B9B689C420E
:1007600006D2204600F046FA0130E4D10434F4E722
:100770000024029B464647461C7025464D4B5C6054
:1007800093E7002F3FF45DAF0AF00B030B2B7FF4D0
:1007900058AF0220029B187000F0DAFA322000F005
:1007A000D9F9B0F1000BFFF64CAF1BF003087FF452
:1007B00048AF019B04EB0B0299688A423FF641AFB8
:1007C000BBF5807F3FF63DAF404AD84503920FDA34
:1007D0004FF47A7000F0BEF9049004990029FFF6F6
:1007E00030AF0499039A08F8021008F10108ECE709
:1007F000C820FFF7F9FD804600283FF422AF1F2CE8
:1008000011D8C4F1200710AB24F003002F495F4535
:10081000184428BF5F463A4600F0B8FA3A46FF212E
:100820002A4800F0DBFA4FEAAB0328492046DAB247
:10083000039300F0DBFA074600283FF47EAF039BEA
:1008400004EB830431E70220FFF7CEFD00283FF4DC
:10085000F8AE00F013FA00283FF4F3AE4FF00008B2
:100860004346019A9268904532D2B8F11F0F12D8D0
:10087000109A01320FD028F0030218A90A4452F846
:10088000202C0B92184604220BA908F1040800F052
:10089000A5FB0346E5E74046039300F0ABF9039B55
:1008A0000B90EFE750220220742302205C220220EA
:1008B000150400087823022070220220A23C0008C0
:1008C0005422022058220220A43C00087422022054
:1008D00018A8042140F84C3D00F05AF9E5E618A8A4
:1008E0000023642140F8343D00F048F900287FF4EB
:1008F000A8AE0220FFF778FD00283FF4A2AE0B98C7
:1009000000F0A8F918AB43F8480D04211846E3E7B6
:1009100018A80023642140F8343D00F02FF9002886
:100920007FF48FAE0220FFF75FFD00283FF489AE11
:100930000B9800F09DF918AB43F8440DE5E7022051
:10094000FFF752FD00283FF47CAE00F0A7F918AB8A
:1009500043F8400DD9E70220FFF746FD00283FF499
:1009600070AE0BA9142000F09FF9804618A804214E
:1009700040F83C8D00F00CF941460BA8ACE7322062
:1009800000F0E8F8B0F10008FFF65BAE18F0030FD6
:100990007FF457AE019A08EB0903926893423FF641
:1009A00050AE0220FFF720FD00283FF44AAE28F0A9
:1009B0000308C844C1453FF478AE484609F104092C
:1009C00000F018F904210A900AA800F0E1F8F1E714
:1009D0004FF47A70FFF708FD00283FF432AE00F0C4
:1009E0004DF9002842D0109B01330BD0082210A9EA
:1009F000002000F0FBF9002838D02022FF2110A8A9
:100A000000F0ECF9FFF7F8FC364801F081FB0FE647
:100A1000002F3FF416AE0AF00B030B2B7FF411AE40
:100A200018A80023642140F8343D00F0A7F8804660
:100A300000287FF406AE0220FFF7D6FC00283FF422
:100A400000AE0390FFF7D8FC41F28830454601F034
:100A50005FFB0B9800F060FA00F014FA039B1F464E
:100A6000DBE5074621E64FF00009EAE5B84664E613
:100A7000002000F06FF80490049B002BFFF6D0AD2F
:100A8000012000F057F9049B213B122B3FF6C5AD26
:100A900001A252F823F000BF370600085D060008E7
:100AA000F30600081B0600081B0600081B060008CA
:100AB000830700087F09000847080008DF080008CE
:100AC000110900083F0900081B0600085709000823
:100AD0001B060008D1090008AB0600081B06000829
:100AE000110A0008A08601002DE9F84F4FF47A752D
:100AF00007460E4600245543DFF85080DFF850903B
:100B000098F900305FFA84FA5A1C01D0A34210D140
:100B100059F82400324639460368D3F820B02B46F2
:100B2000D847864205D1084B012083F800A0BDE8D4
:100B3000F88F0134032CE3D14FF4FA7001F0E8FA96
:100B40000020BDE8F88F00BFC4230220002202204D
:100B5000A83C000807B5002202AB012103F8012DD3
:100B600002461846FFF7C0FF20B19DF8070003B00A
:100B70005DF804FB4FF0FF30F9E700000A4604215E
:100B800008B5FFF7B1FF80F00100C0B2404208BDD8
:100B9000074B30B41A78074B53F822400A460146F7
:100BA00023682046DD69044BAC4630BC604700BF7B
:100BB000C4230220A83C0008A086010070B50A4C9E
:100BC00000250A4E01F03AFD2080306823888342D8
:100BD00008D901F02DFD336805440133B5F5004F08
:100BE0003360F2D370BD00BFC623022080230220F1
:100BF00001F0D0BD00F1006000F5004000687047D2
:100C000000F10060920000F5004001F05DBD0000C1
:100C1000054B1A68054B1B889B1A834202D9104466
:100C200001F006BD0020704780230220C623022069
:100C300038B5074D04462868204401F001FD28B965
:100C400028682044BDE8384001F012BD38BD00BF1F
:100C50008023022010F0030308D1B0F5846F05D281
:100C600000F10050A0F57120006870470020704727
:100C7000014BC058704700BF20F4F01F064991F89F
:100C8000243033B100230822086A81F82430FFF7AA
:100C9000B7BF0120704700BF84230220014B1868B2
:100CA000704700BF002004E01F4BF0B51E681F4BCB
:100CB000C6F30B02360C1F885D68BA4293F90840F0
:100CC00022D09F89BA4221D01F8BBA4206D102227C
:100CD0000C2404FB02335D6893F90840B6F5805F8D
:100CE00016D041F201039E4208BF5A24421E013D24
:100CF0000B460A44934215D215F9016F581C4EB1A8
:100D0000034600F8016CF5E70022E1E70122DFE786
:100D10004124EBE72C2582421D7001D9981C5C70A0
:100D2000401AF0BD1846FBE7002004E00422022030
:100D300000207047022804D14FF48002034B9A61CF
:100D400070470128FCD14FF40002F7E70008024089
:100D5000022803D14022034B9A6170470128FCD13D
:100D60008022F8E700080240022805D1064A5369AC
:100D700083F04003536170470128FCD1024A536954
:100D800083F08003F6E700BF00080240002310B59F
:100D9000934203D0CC5CC4540133F9E710BD00008A
:100DA00030B5441E14F9010F0B4658B193F90050A9
:100DB0000131854206D11AB993F90020801A30BD5D
:100DC000013AEFE7002AF7D1104630BD024603464C
:100DD000981A13F9011B0029FAD1704702440346FF
:100DE000934202D003F8011BFAE770472DE9F04760
:100DF000234C05468846174694F8243083BB2E467C
:100E0000DFF87C90C7B394F824302BB92022FF215F
:100E100048462662FFF7E2FF94F824004146C0F1FD
:100E2000080504EB8000BD4228BF3D465FFA85FA05
:100E3000AD00A7EB0A072A462E44FFF7A7FF94F858
:100E40002430A844FFB29A445FFA8AFABAF1080F34
:100E500084F824A0D6D1FFF711FF0028D2D108E0F2
:100E6000266A06EB8306B042CAD0FFF707FF0028C8
:100E7000C5D10020BDE8F0870120BDE8F08700BFA4
:100E800084230220024B1A78024B1A70704700BF6D
:100E9000C42302200022022038B5184C184D2046E9
:100EA00000F044FC2946204600F06CFC2D681548F3
:100EB000EA6ED2F8043843F00203C2F8043801F0B5
:100EC00027F91149284600F06BFDEA6E0F48D2F869
:100ED00004380F49A04223F00203C2F804384FF44B
:100EE000E1330B6001D000F07FFB0A48A04204D040
:100EF0000749BDE8384000F077BB38BDD82A02204A
:100F0000C43D000840420F00E83D0008482402208C
:100F1000AC230220B424022038B50B4B05461A78C6
:100F20000A4B53F822400A4B9C420CD0094B00213B
:100F300018221846FFF752FF056001462046BDE81B
:100F4000384000F051BB38BDC4230220A83C000843
:100F5000D82A0220AC230220FEE7000000B59BB097
:100F6000EFF3098168226846FFF710FFEFF305836E
:100F7000044B9A6BDA6A9A6A9A6A9A6A9A6A9A6AC5
:100F80009B6AFEE700ED00E000B59BB0EFF309813E
:100F900068226846FFF7FAFEEFF30583044B9A6B6D
:100FA0009A6A9A6A9A6A9A6A9A6A9B6AFEE700BF84
:100FB00000ED00E000B59BB0EFF3098168226846C0
:100FC000FFF7E4FEEFF30583034B5A6B9A6A9A6AC4
:100FD0009A6A9A6A9B6AFEE700ED00E030B50A441F
:100FE000074D91420BD011F8013B09245840013CB8
:100FF000F7D040F300032B4083EA5000F7E730BD01
:101000002083B8ED002304491A465A50C818083303
:101010004260802BF9D17047C823022002684368E0
:101020001143016003B1184770470000024A13687A
:1010300043F0C0031360704700440040024A136845
:1010400043F0C003136070470078004037B51A4C76
:101050001A4D204600F0BCFA009404F1140000235D
:101060004FF48072164900F07DF900944FF48072BD
:10107000144904F13800144B00F0F6F9134B2566BF
:10108000E365134C204600F0A3FA04F11400009429
:1010900000234FF480720F4900F064F900940E4B66
:1010A0004FF480720D4904F1380000F0DDF90C4B6B
:1010B0002566E36503B030BD4824022080F937037C
:1010C00020250220202702202D1000080044004087
:1010D000B4240220202602203D10000820280220EF
:1010E00000780040284B002908BF1946037C012BDB
:1010F00030B50CD1254B984236D1254B1A6C42F4B1
:1011000000321A641A6E42F400321A661B6E0A68C4
:10111000036EC46D03EB52038166B3FBF2F34A68BE
:10112000150442BF23F0070503F0070343EA450314
:10113000E3608B6843F040036360CB68510543F084
:101140000103A36042F4967343F0010323604FF060
:10115000FF33236205D512F0102211D0B2F1805F67
:1011600010D080F8643030BD0A4B9842CFD1084B84
:101170001A6C42F080421A641A6E42F08042C4E750
:101180007F23EEE73F23ECE7E03C00084824022001
:1011900000380240B42402202DE9F047C66D054610
:1011A0003768F469200734621AD014F0080F0CBFB6
:1011B00000218021E20748BF41F02001A3074FF042
:1011C000200348BF41F04001600748BF41F48071EF
:1011D00083F31188281DFFF721FF002383F3118873
:1011E000E2050AD5202383F311884FF40071281DEE
:1011F000FFF714FF002383F311884FF020094FF00D
:10120000000A14F0200831D13B0616D54FF0200912
:1012100005F1380A200610D589F31188504600F0F0
:1012200057F900282FDA0821281DFFF7F7FE27F0CD
:1012300080033360002383F3118879060DD562069D
:101240000BD5202383F31188EA6C2B6D9A4201D1D0
:101250002B6CEBB9002383F31188E30620D5AA6E2B
:101260001369EBB15069BDE8F047184789F311885D
:10127000736A284695F86410194000F0C3F98AF3A0
:101280001188F469BDE7B06288F31188F469C1E799
:1012900027F040071021281DFFF7C0FE3760D9E76F
:1012A000BDE8F087F8B51546826804460B46AA42A9
:1012B00000D28568A1692669761AB54207D2184618
:1012C0002A46FFF763FDA3692B44A3610DE011D902
:1012D000AF1B32461846FFF759FD3A46E1683044E5
:1012E000FFF754FDE2683A44A261A36828465B1BFD
:1012F000A360F8BD18462A46FFF748FDE368E4E717
:10130000836893422DE9F04104460F46154600D20A
:10131000856860692669361AB54207D22A46394679
:10132000FFF734FD63692B4463610EE013D9A5EB2D
:10133000060832463946FFF729FD4246B919E068EA
:10134000FFF724FDE26842446261A36828465B1B04
:10135000A360BDE8F0812A463946FFF717FDE36830
:10136000E2E7000010B50A440024C361029B00605C
:1013700040608460C160816141610261036210BDAF
:1013800008B582694369934201D1826882B9826853
:10139000013282605A1C42611970426903699A42A3
:1013A00001D3C3684361002100F0CEFE002008BDD8
:1013B0004FF0FF3008BD000070B5202304460E46F4
:1013C00083F31188A568A5B1A368A269013BA36056
:1013D000531CA36115782269934224BFE368A3617B
:1013E000E3690BB120469847002383F31188284610
:1013F00070BD3146204600F097FE0028E2DA85F302
:10140000118870BD2DE9F74F05460F4690469A4664
:10141000D0F81C90202686F311884FF0000B14465C
:1014200064B1224639462846FFF73CFF034668B9B7
:101430005146284600F078FE0028F1D0002383F3BF
:101440001188A8EB040003B0BDE8F08FB9F1000FDC
:1014500003D001902846C847019B8BF31188E41AFA
:101460001F4486F31188DBE7C1608161416111444B
:10147000C361009B0060406082600161036270474D
:10148000F8B504460E461746202383F31188A56855
:10149000A5B1A368013BA36063695A1C62611E7019
:1014A000236962699A4224BFE3686361E3690BB10F
:1014B00020469847002080F31188F8BD3946204621
:1014C00000F032FE0028E2DA85F31188F8BD000052
:1014D000836942699A4210B501D182687AB98268FB
:1014E000013282605A1C82611C7803699A4201D3DE
:1014F000C3688361002100F027FE204610BD4FF035
:10150000FF3010BD2DE9F74F05460F4690469A462D
:10151000D0F81C90202686F311884FF0000B14465B
:1015200064B1224639462846FFF7EAFE034668B909
:101530005146284600F0F8FD0028F1D0002383F33F
:101540001188A8EB040003B0BDE8F08FB9F1000FDB
:1015500003D001902846C847019B8BF31188E41AF9
:101560001F4486F31188DBE702684368114301607A
:1015700003B11847704700001430FFF743BF000065
:101580004FF0FF331430FFF73DBF00003830FFF756
:10159000B9BF00004FF0FF333830FFF7B3BF000092
:1015A0001430FFF709BF00004FF0FF311430FFF790
:1015B00003BF00003830FFF763BF00004FF0FF3279
:1015C0003830FFF75DBF000000207047FFF73EBDD9
:1015D000044B0360002343608360C36001230374F2
:1015E000704700BFF83C000810B52023044683F381
:1015F0001188FFF777FD02232374002383F31188FA
:1016000010BD000038B5C36904460D461BB904215E
:101610000844FFF7A9FF294604F11400FFF7B0FEC4
:10162000002806DA201D4FF48061BDE83840FFF73E
:101630009BBF38BD026843681143016003B118477E
:101640007047000013B5446BD4F894341A681178CD
:10165000042915D1217C022912D11979012312897B
:101660008B4013420CD101A904F14C0001F082FF20
:10167000D4F894440246019B2179206800F0E0F9F7
:1016800002B010BD143001F005BF00004FF0FF3371
:10169000143001F0FFBE00004C3001F0D7BF000055
:1016A0004FF0FF334C3001F0D1BF0000143001F097
:1016B000D3BE00004FF0FF31143001F0CDBE00006A
:1016C0004C3001F0A3BF00004FF0FF324C3001F06E
:1016D0009DBF0000D0F8942438B5136805461978EA
:1016E000042901D0012038BD017C0229FAD11279E8
:1016F00001205C8990400440F4D105F1140001F010
:1017000065FE02460028EDD0D5F894544FF480735E
:101710002868697900F082F9204638BD406BFFF7F0
:10172000D9BF000000207047704700007FB5124B02
:1017300001250226044603600023057400F184029B
:10174000436029468360C3600C4B029014300193C0
:101750004FF48073009601F015FE094B04F52372D7
:101760002946019304F14C004FF4807302940096D3
:1017700001F0DCFE04B070BD203D00081D1700081C
:10178000451600080B68202282F311880A7903EBC2
:10179000820210624A790D3243F822008A7912B12E
:1017A00003EB820318620223C0F89414037400232D
:1017B00083F311887047000038B5037F044613B1E6
:1017C00090F85430ABB90125201D0221FFF732FFFC
:1017D00004F1140025776FF0010100F0C1FC84F8DA
:1017E000545004F14C006FF00101BDE8384000F0A6
:1017F000B7BC38BD10B5012104460430FFF71AFF0D
:101800000023237784F8543010BD000038B5044617
:101810000025143001F0CEFD04F14C00257701F0D5
:101820009DFE201D84F854500121FFF703FF204640
:10183000BDE83840FFF74EBF90F85C3003F060031E
:10184000202B19D190F85D20212A0AD0222A4FF0AE
:1018500000030ED0202A0FD1084A026507224265F4
:1018600004E0064B036507234365002383650120DD
:10187000704703654365F9E700207047282202207E
:10188000D0F8943437B51A680446117804291AD16F
:10189000017C022917D11979012312898B40134247
:1018A00011D100F14C05284601F018FF58B101A9EB
:1018B000284601F05FFED4F894440246019B21794A
:1018C000206800F0BDF803B030BD000000EB8103DC
:1018D000F7B51C6A05460E46F4B1202383F3118840
:1018E00005EB8607201D08214C34FFF7A3FEFB689B
:1018F0005B691B6813B1204601F04AFE01A920462E
:1019000001F038FE024648B1019B3146284600F0FE
:1019100097F8002383F3118803B0F0BDFB685A6980
:101920001268002AF5D01B8A013B1340F1D105F162
:101930005C02EAE70D3138B550F82140DCB12023D4
:1019400083F31188D4F894241368527903EB82034B
:10195000DB689B695D6845B104216018FFF76AFE8A
:10196000294604F1140001F03BFD2046FFF7B2FECA
:10197000002383F3118838BD7047000001F0D0B810
:10198000012300F1240200F13801037000234360B9
:1019900042F8043B8A421361FAD1038143817047C4
:1019A00038B50446202383F3118800254160C560C3
:1019B000056145618561C561056201F0C1F80223D9
:1019C000237085F3118838BD70B500EB810305469F
:1019D00050690E461446DA6018B110220021FFF754
:1019E000FDF9A06918B110220021FFF7F7F931467F
:1019F0002846BDE8704001F06DB90000028902F090
:101A000001020281428902F0010242810022026148
:101A100042618261C261026201F0F0B9F0B4012555
:101A200000EB810447898D40E4683D43A46945810A
:101A300023600023A2606360F0BC01F00BBA0000D9
:101A4000F0B4012500EB810407898D40E4683D4333
:101A50006469058123600023A2606360F0BC01F02B
:101A600085BA000070B50223002504460370A0F873
:101A7000645080F8665080F8675005814581C560E4
:101A8000056145618561C561056280F84C5001F0D2
:101A9000BDF863681B6823B129462046BDE8704045
:101AA000184770BD037880F86830052303704368D9
:101AB0001B6810B504460BB104219847002323810D
:101AC000638110BD436890F868201B6802700BB1F9
:101AD000052118477047000090F84C3070B5044657
:101AE00013B1002380F84C3004F15C02204601F071
:101AF000A7F963689B6863BB94F85C5015F06006B7
:101B000015D194F85D3005F07F0545EA032540F2D4
:101B100002339D4200F00E815BD8022D00F0DC8084
:101B20003FD8002D00F08780012D00F0CF800021EC
:101B3000204601F0F3FB0021204601F0E5FB63683D
:101B40001B6813B1062120469847062384F84C30C1
:101B500070BD204698470028CED094F8632094F8B2
:101B6000623043EA0223626D934238BF636594F9A1
:101B70005C30656D002B4FF0200380F2FD80002D5E
:101B800000F0EC80092284F84C2083F311880021B6
:101B9000636D226D2046FFF753FF002383F3118806
:101BA00070BDB5F5817F00F0B180B5F5407F49D0BB
:101BB000B5F5807FBBD194F85E30012BB7D1B4F876
:101BC000643023F00203A4F8643026656665A665D8
:101BD000C3E740F201639D421ED8B5F5C06F3BD20A
:101BE000B5F5A06FA3D1B4F85C30B3F5A06F0ED1FA
:101BF00094F85E30204684F8663001F05FF8636840
:101C00001B6813B10121204698470323237000234A
:101C100023656365A365A0E7B5F5106F32D040F684
:101C200002439D4252D0B5F5006F80D104F16703A5
:101C30002365012324E004F16403A56523650223E1
:101C400063658AE794F85E30012B7FF470AFB4F8D7
:101C5000643043F00203B6E794F8612020466168DF
:101C600094F860304D6843EA022394F85F1094F8CA
:101C70005E20A84700283FF45AAF436823650368F5
:101C80006365A4E72378042B10D1202383F3118804
:101C90002046FFF7B3FE86F311886368032184F8BA
:101CA00067601B6821700BB12046984794F85E303E
:101CB000002BACD084F867300423237063681B6862
:101CC000002BA4D0022120469847A0E7374B23657C
:101CD0000223636500239DE794F86010204611F00D
:101CE000800F01F00F010ED001F09CF8012806D002
:101CF00002287FF41CAF2E4B6065236567E72D4BF0
:101D00006565236563E701F07FF8EFE794F85E30DF
:101D1000002B7FF40CAF94F8603013F00F013FF408
:101D200076AF1A06204602D501F00CFB6FE701F0F2
:101D3000FFFA6CE794F85E30002B7FF4F8AE94F86D
:101D4000603013F00F013FF462AF1B06204602D54E
:101D500001F0E4FA5BE701F0D7FA58E7142284F8BF
:101D60004C2083F311882B462A4629462046FFF74C
:101D700055FE85F3118870BD5DB1152284F84C20A5
:101D800083F311880021636D226D2046FFF746FE24
:101D900003E70B2284F84C2083F311882B462A4654
:101DA00029462046FFF74CFEE3E700BF503D000800
:101DB000483D00084C3D000838B590F84C300446CA
:101DC000152B29D8DFE803F03E28282828283E28AC
:101DD000280B293928282828282828283E3E90F82A
:101DE000631090F86220436D42EA01229A4214D9AE
:101DF000C268128AB3FBF2F502FB15356DB92023D8
:101E000083F311882B462A462946FFF719FE85F3EE
:101E100011880A2384F84C3038BD142384F84C30E0
:101E2000202383F31188002320461A461946FFF722
:101E3000F5FD002383F3118838BD836D03B1984706
:101E40000023E7E7002101F069FA0021204601F0B4
:101E50005BFA63681B6813B1062120469847062386
:101E6000D8E7000090F84C20152A38B5044622D84F
:101E70000123934040F6416213421DD113F48015B3
:101E80000FD19B0217D50B2380F84C30202383F30E
:101E900011882B462A462946FFF7D2FD85F3118883
:101EA00038BDC3689B695B682BB9836D03B19847E4
:101EB000002384F84C3038BD002101F02FFA0021B6
:101EC000204601F021FA63681B6813B10621204601
:101ED00098470623EDE70000024B00221B605B6081
:101EE0009A60704720290220002382680374054B02
:101EF0001B6899689142FBD25A6803604260106087
:101F0000586070472029022008B5202383F31188E8
:101F1000037C032B05D0042B0DD02BB983F3118840
:101F200008BD436900221A604FF0FF334361FFF799
:101F3000DBFF0023F2E790E80C001A6002685360B0
:101F4000F2E70000002382680374054B1B68996860
:101F50009142FBD85A680360426010605860704735
:101F600020290220054B196908741868026853601B
:101F70001A60186101230374FEF7D6B920290220E4
:101F80004B1C30B5054687B00A4C10D0236901A818
:101F9000094A00F001F92846FFF7E4FF049B13B15A
:101FA00001A800F04BF92369586907B030BDFFF76D
:101FB000D9FFF8E720290220091F000838B50C4D89
:101FC000044641612B6981689A68914203D8BDE853
:101FD0003840FFF789BF1846FFF7B4FF01232C6193
:101FE000014623742046BDE83840FEF79DB900BF86
:101FF00020290220044B1A681B6990689B6898424C
:1020000094BF0020012070472029022010B5084C01
:10201000236820691A6854602260012223611A74BF
:10202000FFF790FF01462069BDE81040FEF77CB93C
:1020300020290220FEE7000010B50C4CFFF74CFFF2
:1020400000F09CF880220A49204600F021F8012384
:1020500044F8180C037400F039FC002383F3118852
:1020600062B60448BDE8104000F034B848290220A8
:10207000543D00085C3D000800F01AB9034B596854
:102080005A68521A9042FBD8704700BF001000E017
:102090008260022202740022427470478368A3F1B6
:1020A0007C0243F80C2C026943F83C2C426943F84B
:1020B000382C074A43F81C2CC268A3F1180043F8D7
:1020C000102C022203F8082C002203F8072C70477A
:1020D0004103000810B5202383F31188FFF7DEFFCA
:1020E00000210446FFF76AFF002383F3118820468E
:1020F00010BD0000024B1B6958610F20FFF732BF73
:1021000020290220202383F31188FFF7F3BF00006A
:1021100008B50146202383F311880820FFF730FF1C
:10212000002383F3118808BD49B1064B42681B693F
:1021300018605A60136043600420FFF721BF4FF01E
:10214000FF307047202902200368984206D01A68A1
:102150000260506018465961FFF7C6BE7047000024
:1021600038B504460D462068844200D138BD036866
:1021700023605C604561FFF7B7FEF4E7054B03F1B0
:1021800014025A619A614FF0FF32DA6100221A623A
:10219000704700BF20290220F8B5274F0D46036184
:1021A0000446C2603E4601F0CDFA3B46022D294668
:1021B00053F8142F38BF02219A421D460AD13862C3
:1021C00008447C61BC6122606260A160BDE8F840A7
:1021D00001F0A6BAD7F820E0A0EB0E035F181FD3DA
:1021E00000279068834217D8376AAA421F44376293
:1021F00001D0C01A906073699A68914219D85A68E0
:102200002360626014605C60A1609868411A996004
:102210004FF0FF33F361F8BD97601B1A1268E0E7D7
:1022200093689F4203D20EEB070001F087FA39460C
:10223000E1E7891A1B68DFE72029022038B51B4B2C
:1022400001685A691D46904203F114020CD044689B
:1022500021600021036893425C60C16025D09A68C8
:1022600081680A449A6038BD59614A6000215B69FF
:10227000C160934203D1BDE8384001F059BA9A6871
:1022800081680A449A602C6A01F05CFA6A69001B52
:102290009268824209D9111A012998BF821C286AC2
:1022A000BDE83840104401F049BA38BD2029022069
:1022B0002DE9F84F204C0027656904F11406B84653
:1022C00001F040FA236AA0EB030AAB6853451DD81E
:1022D0004FF02009236AAA68D5F80CB01344236292
:1022E000AB68AAEB030A2B68B3425E606361EF60E0
:1022F00001D101F01DFA88F311882869D84789F3C4
:1023000011886569AB689A45E4D2D9E76369B3423D
:1023100010D020629A68A2EB0A029A60226AAB6827
:10232000821A9B1A022B2CBFC0180230BDE8F84F4E
:1023300001F004BABDE8F88F202902200020704780
:10234000FEE70000704700004FF0FF3070470000CC
:10235000022906D0032906D00129064818BF00200B
:10236000704705487047032A9ABF044800EBC20033
:1023700000207047443E0008F83D0008302202204B
:1023800070B59AB006460846144601AD294600F0DD
:1023900095F82846FEF71AFDC0B2431C5B0086E89C
:1023A000180023700323023404F8013C002319466B
:1023B000DAB20234904201D81AB070BDEA5C01333F
:1023C00004F8011C04F8022CF2E7000008B52023F1
:1023D00083F311880348FFF753FA002383F311882E
:1023E00008BD00BFD82A022010B50446052916D81A
:1023F000DFE801F016150316161D202383F311885C
:102400000E4A0121FFF7E0FA20460D4A0221FFF7AC
:10241000DBFA0C48FFF7FAF9002383F3118810BDAB
:10242000202383F311880748FFF7C6F9F4E7202338
:1024300083F311880348FFF7DDF9EDE77C3D0008E1
:10244000A03D0008D82A022038B50C4D0C4C2A4675
:102450000C4904F10800FFF793FF05F1CA0204F1EB
:1024600010000949FFF78CFF05F5CA7204F1180046
:102470000649BDE83840FFF783BF00BFA02F022008
:1024800030220220CC3D0008D43D0008DF3D00088A
:1024900070B5044608460D46FEF798FCC6B22046C5
:1024A000013403780BB9184670BD32462946FEF751
:1024B00077FC0028F3D1012070BD00002DE9F84F12
:1024C00005460C46FEF782FC2B49C6B22846FFF7AC
:1024D000DFFF2A492846FFF7DBFF08B11036F6B2C6
:1024E000632E0DD8DFF89080DFF89090244FDFF84E
:1024F00098A0DFF898B02E7846B92670BDE8F88F1E
:1025000029462046BDE8F84F01F0C2BB252E2ED14A
:10251000072241462846FEF743FC70B9DBF800303D
:102520000735073444F8073CBBF8043024F8033C73
:102530009BF8063004F8013CDDE7082249462846AE
:10254000FEF72EFC98B9A21C0E4B13F8011F0232A5
:1025500009095345C95D02F8041C197801F00F01FF
:10256000C95D02F8031CF0D118340835C3E72670A2
:1025700001350134BFE700BF643E0008DF3D0008BD
:10258000743E00081FF4F01F2BF4F01F6C3E00088F
:10259000BFF34F8F024AD368DB03FCD4704700BF00
:1025A000003C024008B5074B1B7853B9FFF7F0FF1A
:1025B000054B1A69002A04DA044A5A6002F188328B
:1025C0005A6008BDFE310220003C024023016745ED
:1025D00008B5054B1B7833B9FFF7DAFF034A1369D7
:1025E00043F00043136108BDFE310220003C02406D
:1025F0000B2870B513D80B4A0B4C137863B94FF006
:1026000000610A4E44F8231056F8235001330C2B76
:102610002944F7D10123137054F8200070BD002025
:1026200070BD00BF3032022000320220883E000818
:10263000014B53F820007047883E00080C2070477B
:102640000B2810B5044601D9002010BDFFF7D0FFBC
:10265000064B53F824301844C21A0BB9012010BDA0
:1026600012680132F0D1043BF6E700BF883E000853
:102670000B2810B5044621D8FFF78AFFFFF792FF19
:102680000F4AF323D360C300DBB243F4007343F07B
:1026900002031361136943F480331361FFF778FF7A
:1026A000FFF7A6FF074B53F8241000F0DBF8FFF705
:1026B0008FFF2046BDE81040FFF7C2BF002010BDCD
:1026C000003C0240883E00082DE9F84312F0010367
:1026D00015463FD18218B2F1026F3BD22B4B1B68DB
:1026E00013F0010336D0FFF75DFF294CF32340F2CE
:1026F0000127E360FFF74CFF032D01D9830712D0B8
:102700000F46401A224C40F20118EB1BC6190B442D
:10271000012B236924D823F001032361FFF758FF1D
:102720000120BDE8F883236923F440732361236902
:102730003B43236151F8046B0660BFF34F8FFFF7F3
:1027400027FF03689E4208D0236923F00103236119
:10275000FFF73EFF0020BDE8F883043D0430CBE7DF
:1027600023F44073B9462361236943EA08032361D4
:1027700037F8023B3380BFF34F8FFFF709FF3688EE
:10278000B6B2B9F80030B342BFD0DDE7003802403E
:10279000003C0240084908B50B7828B153B9FFF74F
:1027A00001FF01230B7008BD23B10870BDE808408C
:1027B000FFF70EBF08BD00BFFE31022002440439FE
:1027C000064BD2B210B5904200D110BD441C00B2ED
:1027D00053F8200041F8040FE0B2F4E7502800401D
:1027E000104B30B51C6F240407D41C6F44F40074E4
:1027F0001C671C6F44F400441C670B4C02440439F2
:102800002368D2B243F480732360084B904200D116
:1028100030BD441C51F8045F00B243F82050E0B2D0
:10282000F4E700BF0038024000700040502800402C
:1028300007B5012201A90020FFF7C0FF019803B0EE
:102840005DF804FB13B50446FFF7F2FFA04206D083
:1028500002A90122002041F8044DFFF7C1FF02B098
:1028600010BD00000144BFF34F8F064B884204D3D4
:10287000BFF34F8FBFF36F8F7047C3F85C022030F8
:10288000F4E700BF00ED00E0034B1B689B0042BF74
:102890000122024B1A707047743802403132022014
:1028A000014B1878704700BF31320220EFF30983E3
:1028B000054968334A6822F001024A6083F30988B7
:1028C000002383F31188704730EF00E0202080F36D
:1028D000118862B60D4B0E4AD96821F4E0610904F3
:1028E000090C0A430B49DA60CA6842F08072CA6078
:1028F000094A0A49C2F8B01F116841F0010111608C
:102900001022DA7783F82200704700BF00ED00E064
:102910000003FA05F0ED00E0001000E055CEACC574
:1029200010B5202383F311880E4B5B6813F400630A
:1029300014D0F1EE103AEFF309844FF08073683C45
:10294000E361094BDB68236684F30988FFF752FBD8
:1029500010B1064BA36110BD054BFBE783F3118853
:1029600010BD00BF00ED00E030EF00E053030008B1
:1029700056030008F0B5BFF34F8FBFF36F8F1D4BA9
:102980000021C3F85012BFF34F8FBFF36F8F5A6906
:1029900042F400325A61BFF34F8FBFF36F8FC3F819
:1029A0008410BFF34F8FD3F8802043F6E076C2F354
:1029B000C904C2F34E32A507520102EA060E2846A8
:1029C00021464EEA0007013900F14040C3F8607229
:1029D0004F1CF6D1203A12F1200FEED1BFF34F8FEA
:1029E0005A6942F480325A61BFF34F8FBFF36F8F41
:1029F000F0BD00BF00ED00E0FEE70000084A094B13
:102A000009498B4204D3094A0021934205D37047F8
:102A100052F8040F43F8040BF3E743F8041BF4E700
:102A20006C400008C4320220C4320220C4320220AA
:102A3000036F002170B5C46E4FF0FF359E684A01E8
:102A4000A318D3F80009002805DAD3F8000940F0EC
:102A50008040C3F80009D3F8000B002805DAD3F84A
:102A6000000B40F08040C3F8000B0131A3188E42E8
:102A7000C3F80859C3F8085BE1D24FF00113C4F85A
:102A80001C3870BD890141F02001016103699B067A
:102A9000FCD41220FFF7F2BA204B03EB80022DE9A1
:102AA000F047D2F80CE0461CDD6EDEF8142005EB92
:102AB0000636D2F800C005EB4018516861450BD3CB
:102AC0000123D5F8342803FA00F022EA0000C5F803
:102AD00034081846BDE8F087ACEB0103BEF810409F
:102AE000A34228BF2346D8F81849A4B2B3EB840FF9
:102AF00010D894681F46A4F1040959F804AF042FB4
:102B0000C6F800A001D9043FF7E71C440B449460C9
:102B10005360D2E70020BDE8F08700BF34320220C6
:102B200010B5054C2046FEF72BFF4FF0A043E3669F
:102B3000024B236710BD00BF34320220DC3E000888
:102B40000378012B70B5054650D12A4BC46E9842CC
:102B50001BD1294B0E2143205A6B42F080025A634D
:102B60005A6D42F080025A655A6D5A6942F08002ED
:102B70005A615A6922F080025A615B6900F0ECFBED
:102B80001E4BE3601E4BC4F800380023EE6EC4F801
:102B9000003EC02323604FF40413A3633369002B6A
:102BA000FCDA01230C203361FFF768FA3369DB0795
:102BB000FCD41220FFF762FA3369002BFCDA0026FE
:102BC0002846A660FFF734FF6B68C4F81068DB681E
:102BD000C4F81468C4F81C684BB90A4BA3614FF0E1
:102BE000FF336361A36843F00103A36070BD064B2C
:102BF000F4E700BF343202200038024040140040A5
:102C000003002002003C30C0083C30C0F8B5C46E60
:102C1000054600214FF000662046FFF733FF296F7D
:102C200000234FF001128F684FF0FF30C4F83438A2
:102C3000C4F81C2804EB431201339F42C2F8006918
:102C4000C2F8006BC2F80809C2F8080BF2D20B6890
:102C5000EA6E6B67636210231361166916F0100643
:102C6000FBD11220FFF70AFAD4F8003823F4FE63F0
:102C7000C4F80038A36943F4402343F01003A36170
:102C80000923C4F81038C4F814380A4BEB604FF02D
:102C9000C043C4F8103B084BC4F8003BC4F81069AB
:102CA000C4F800396B6F03F1100243F480136A67B4
:102CB000A362F8BDB83E000840800010C26E90F8D4
:102CC0006610D2F8003823F4FE6343EA0113C2F819
:102CD000003870472DE9F0410EB20D4600EB860832
:102CE000D8F80C100F6807F00303022B50D0032B09
:102CF00050D03D4A3D4F012B18BF1746C46E4FEAD6
:102D0000451E002205F1100C04EB0E03C3F8102B36
:102D10008A69002A40D04A8A05F158033A435B0188
:102D2000E2500123D4F81C2803FA0CF31343C4F82F
:102D30001C38A64400234A69CEF8103905F13F0338
:102D4000002A39D00A8A04EB8303898B920801296F
:102D500088BF4A43416F561841EA024229464667F6
:102D600020465A60FFF78EFED8F80C301B8A43EAE3
:102D700085531F4305F148035B01E7500123D4F855
:102D80001C2803FA05F51543C4F81C58BDE8F0816A
:102D9000174FB3E7174FB1E704EB4613D3F8002BF7
:102DA00022F40042C3F8002B0123D4F81C2803FAB4
:102DB0000CF322EA0303BAE704EB83030E4A04EBA5
:102DC000461629465A602046FFF75CFED6F80039C1
:102DD000012223F4004302FA05F5C6F80039D4F8BD
:102DE0001C3823EA0505CFE700800010008004109E
:102DF0000080081000800C1000040002026F1268AE
:102E00004267FFF715BE00005831C36E49015B5899
:102E100013F4004004D013F4001F14BF012002205B
:102E2000704700004831C36E49015B5813F40040FD
:102E300004D013F4001F14BF0120022070470000CB
:102E400000EB8101CB68196A0B6813604B68536013
:102E50007047000000EB810330B5DD68AA69136894
:102E6000D36019B9402B84BF402313606B8A146868
:102E7000C26E1C4402EB4110013C09B2B4FBF3F4F6
:102E80006343033323F0030343EAC44343F0C043E3
:102E9000C0F8103B2B6803F00303012B0ED1D2F8CE
:102EA000083802EB411013F4807FD0F8003B14BFC8
:102EB00043F0805343F00053C0F8003B02EB411253
:102EC000D2F8003B43F00443C2F8003B30BD0000A1
:102ED0002DE9F041244D0446EE6E06EB4013D3F885
:102EE000087B3807C3F8087B0AD5D6F814381907C9
:102EF00006D505EB840321462846DB685B689847C6
:102F0000FA072FD5D6F81438DB072BD505EB840349
:102F1000D968CCB98B69488A5E68B6FBF0F200FBD1
:102F200012628AB91868DA6890420DD2121A83E8E0
:102F30001400202383F311880B482146FFF78AFFF2
:102F400084F31188BDE8F081012303FA04F26B8950
:102F500023EA02036B81CB6823B121460248BDE816
:102F6000F0411847BDE8F0813432022000EB8103C4
:102F70004A0170B5DD68C36E6C692668E66056BBB1
:102F80001A444FF40020C2F810092A6802F0030224
:102F9000012A0AB20ED1D3F8080803EB421410F448
:102FA000807FD4F8000914BF40F0805040F00050FA
:102FB000C4F8000903EB4212D2F8000940F00440C3
:102FC000C2F800090122D3F8340802FA01F10143E2
:102FD000C3F8341870BD19B9402E84BF402020605A
:102FE00020681A442E8A841940F00050013CB4FB3A
:102FF000F6F440EAC440C6E7F8B504461E48C56E7C
:1030000005EB4413D3F80869F107C3F8086917D52D
:10301000D5F81038DA0713D500EB8403D9684B696B
:103020001F68DA68974218D2D21B00271A605F60C7
:10303000202383F311882146FFF798FF87F3118837
:10304000330617D50123D5F83428A340134211D0F5
:103050002046BDE8F840FFF71FBD012303FA04F244
:10306000038923EA020303818B68002BE8D0214601
:103070009847E5E7F8BD00BF34320220A1482DE9AA
:10308000F84FC56E04466E69AB691E4016F4805F4A
:103090006E6105D0FEF7E6FCBDE8F84FFFF740BCD7
:1030A000002E12DAD5F8003E9B0705D0D5F8003E79
:1030B00023F00303C5F8003ED5F80438914823F007
:1030C0000103C5F80438FEF7FDFC370505D58D482A
:1030D000FFF7AEFC8B48FEF7E5FCB0040CD5D5F845
:1030E000083813F0060FEB6823F470530CBF43F459
:1030F000105343F4A053EB60310704D56368DB68D9
:103100000BB180489847F2026FD4B3020CD5D4F8C3
:103110006C8000274FF00109DFF8E8A1236FF9B2B6
:103120009B688B4280F09C80F70619D5E16E0A6A95
:10313000C2F30A1702F00F0302F4F012B2F5802F67
:1031400000F0B580B2F5402F0AD104EB830301F5FE
:103150008051DB68186A00231A469F4240F09C8029
:103160003303D5F818481DD5E70302D50020FFF733
:10317000AFFEA50302D50120FFF7AAFE600302D52A
:103180000220FFF7A5FE210302D50320FFF7A0FED2
:10319000E20202D50420FFF79BFEA30202D5052020
:1031A000FFF796FE77037FF577AFE60702D500209D
:1031B000FFF722FFA50702D50120FFF71DFF6007DB
:1031C00002D50220FFF718FF210702D50320FFF7E1
:1031D00013FFE20602D50420FFF70EFFA3067FF5DA
:1031E0005BAF0520FFF708FF56E7D4F86C80002797
:1031F0004FF00109DFF80CA1236F5FFA87FB9B6892
:103200005B4582D308EB4B13D3F8002902F440222C
:10321000B2F5802F22D1D3F80029002A1EDAD3F884
:10322000002942F09042C3F80029D3F80029002A6F
:10323000FBDB5946E06EFFF725FC228909FA0BF308
:1032400022EA0303238104EB8B03DB689B6813B141
:103250005946504698475846FFF71EFC0137CBE7C2
:1032600008EB4112D2F8003B03F44023B3F5802F62
:1032700010D1D2F8003B002B0CDA628909FA01F375
:1032800022EA0303638104EB8103DB68DB680BB193
:1032900050469847013741E79C0700D10A68072B41
:1032A00003F101039EBF0270120A013055E7023399
:1032B00001F5805104EB8302526890690268D0F8EE
:1032C00008C04068A2EB000E0022104697420AD1C7
:1032D00004EB830463689B699A683A449A605A686D
:1032E00017445F603CE712F0030F00D10868964571
:1032F00002F1010282BF8CF80000000A0CF1010CFF
:10330000E4E700BF34320220C36E03EB4111D1F871
:10331000003B43F40013C1F8003B7047C36E03EB5E
:103320004111D1F8003943F40013C1F80039704756
:10333000C36E03EB4111D1F8003B23F40013C1F835
:10334000003B7047C36E03EB4111D1F8003923F401
:103350000013C1F80039704700F1604300F01F020C
:103360000901400903F56143C9B2800083F80013E5
:10337000012300F16040934000F56140C0F88031C6
:103380000360704730B50433039C0172002104FBD5
:103390000325C361049B00600363059B4060C1601B
:1033A000426102618561046242628162C16243637B
:1033B00030BD00000022416AC260416101616FF0CE
:1033C00001018262C262FEF7CBBE0000036942695E
:1033D000934203D1C2680AB100207047181D70479C
:1033E000036919600021C2680132C260C2691344D6
:1033F00082699342036124BF436A0361FEF7A4BE5E
:1034000038B504460D46E3683BB162690020131DE0
:103410001268A3621344E36238BD237A33B92946A4
:103420002046FEF781FE0028EDDA38BD6FF001007E
:10343000FBE70000C368C269013BC36043691344F2
:1034400082699342436124BF436A436100238362DC
:10345000036B03B11847704770B52023044683F30C
:103460001188866A3EB9FFF7CBFF054618B186F38F
:103470001188284670BDA36AE26A13F8015B934283
:10348000A36202D32046FFF7D5FF002383F3118800
:10349000EFE700002DE9F84F04460E4690469946A6
:1034A000202787F311880025AA46D4F828B0BBF15D
:1034B000000F09D149462046FFF7A2FF20B18BF348
:1034C00011882846BDE8F88FA16AA8EB050BE36ACE
:1034D0005B1A9B4528BF9B46BBF1400F1BD9334667
:1034E00001F1400251F8040B914243F8040BF9D169
:1034F000A36A403640354033A362A26AE36A9A4227
:1035000002D32046FFF796FF8AF311884545D8D2AB
:1035100087F31188C9E730465A46FDF737FCA36A9E
:103520005E445D445B44A362E7E7000010B5029C83
:1035300004330172C36103FB042100230060836232
:10354000C362039B40600363049BC46042610261E9
:10355000816104624262436310BD0000026A6FF041
:103560000101C260426A4261026100228262C2625B
:10357000FEF7F6BD436902699A4203D1C2680AB1F7
:1035800000207047184650F8043B0B60704700005D
:10359000C3680021C2690133C3604369134482696F
:1035A0009342436124BF436A4361FEF7CDBD0000EF
:1035B00038B504460D46E3683BB1236900201A1D67
:1035C000A262E2691344E36238BD237A33B9294623
:1035D0002046FEF7A9FD0028EDDA38BD6FF00100A6
:1035E000FBE7000003691960C268013AC260C26962
:1035F000134482699342036124BF436A0361002339
:103600008362036B03B118477047000070B5202335
:1036100004460E4683F31188856A35B91146FFF7D3
:10362000C7FF10B185F3118870BDA36A1E70A36A2D
:10363000E26A01339342A36204D3E169204604396C
:10364000FFF7D0FF002080F3118870BD2DE9F84FFF
:1036500004460D4691469A464FF0200888F311889B
:103660000026B346A76A4FB951462046FFF7A0FF90
:1036700020B187F311883046BDE8F88FA06AA9EB26
:103680000603E76A3F1A9F4228BF1F46402F1BD9F7
:1036900005F1400355F8042B9D4240F8042BF9D165
:1036A000A36A40364033A362A26AE36A9A4204D313
:1036B000E16920460439FFF795FF8BF311884E45E9
:1036C000D9D288F31188CDE729463A46FDF75EFB4B
:1036D000A36A3D443E443B44A362E5E70269436973
:1036E0009A4203D1C3681BB9184670470023FBE711
:1036F000836A002BF8D0043B9B1AF5D01360C36893
:10370000013BC360C3691A4483699A42026124BFC2
:10371000436A0361002383620123E5E700F09EB85A
:103720004FF08043002258631A610222DA6070472A
:1037300000224FF08043DA60704700004FF0804372
:10374000586370474FF08043586A70474B68436036
:103750008B688360CB68C3600B6943614B6903620C
:103760008B6943620B6803607047000008B5274B04
:1037700040F2FF7126481A690A431A611A6922F455
:10378000FF6222F007021A611A691A6B0A431A6370
:103790001A6D0A431A651F4A1B6D1146FFF7D6FFC3
:1037A0001D4802F11C01FFF7D1FF1C4802F138014E
:1037B000FFF7CCFF1A4802F15401FFF7C7FF194881
:1037C00002F17001FFF7C2FF174802F18C01FFF709
:1037D000BDFF164802F1A801FFF7B8FF144802F137
:1037E000C401FFF7B3FF134802F1E001FFF7AEFF9A
:1037F000114802F1FC01FFF7A9FF104802F58C7196
:10380000FFF7A4FFBDE8084000F09EB80038024072
:1038100000000240E83E00080004024000080240A8
:10382000000C024000100240001402400018024048
:10383000001C0240002002400024024000280240F8
:1038400008B500F013FAFEF7F7FBFFF71DF8BDE827
:103850000840FEF7F9BD0000704700000F4B1A6CDE
:1038600042F001021A641A6E42F001021A660C4A12
:103870001B6E936843F0010393604FF080436B220B
:103880009A624FF0FF32DA6200229A615A63DA607C
:103890005A6001225A611A60704700BF0038024026
:1038A000002004E04FF0804208B51369D1680B4056
:1038B000D9B29B076FEA0101116107D5202383F379
:1038C0001188FEF7D9FB002383F3118808BD00009F
:1038D0001B4B4FF0FF3000211A696FEA42526FEA2A
:1038E00052521A611A69C2F30A021A611A695A69B4
:1038F00058615A6959615A691A6A62F080521A62AB
:103900001A6A02F080521A621A6A5A6A58625A6A2D
:1039100059625A6A0B4A106840F480701060186F40
:1039200000F44070B0F5007F03D04FF4803018678A
:103930001967536823F40073536000F06BB900BF3C
:103940000038024000700040374B4FF44041374A86
:103950001A64374A11601A6842F001021A601A6844
:103960009207FCD59A6822F003029A602E4B194602
:103970009A6812F00C02FBD1186800F0F900186088
:103980009A601A6842F480321A600B689B03FCD577
:103990004B6F43F001034B67234B5A6F9007FCD5E5
:1039A000244A5A601A6842F080721A60204B1A4604
:1039B00059684904FCD5196841F48031196053688D
:1039C000D803FCD5136843F400331360184A5368D6
:1039D0009903FCD5144B1A689201FCD5164A9A60DB
:1039E00040F20112C3F88C200022C3F8902040F26C
:1039F0000732124B1A601A6802F00F02072AFAD136
:103A0000094B9A6842F002029A609A6802F00C022E
:103A1000082AFAD15A6C42F480425A645A6E42F42F
:103A200080425A665B6E7047003802400004001006
:103A3000007000400836400900948838003C02407D
:103A4000074A08B5536903F00103536123B1054ADE
:103A500013680BB150689847BDE80840FEF760BF97
:103A6000003C0140C8230220074A08B5536903F00F
:103A70000203536123B1054A93680BB1D06898479C
:103A8000BDE80840FEF74CBF003C0140C8230220BF
:103A9000074A08B5536903F00403536123B1054A8B
:103AA00013690BB150699847BDE80840FEF738BF6D
:103AB000003C0140C8230220074A08B5536903F0BF
:103AC0000803536123B1054A93690BB1D069984744
:103AD000BDE80840FEF724BF003C0140C823022097
:103AE000074A08B5536903F01003536123B1054A2F
:103AF000136A0BB1506A9847BDE80840FEF710BF43
:103B0000003C0140C8230220164B10B55C6904F448
:103B100078725A61A30604D5134A936A0BB1D06A2E
:103B20009847600604D5104A136B0BB1506B984749
:103B3000210604D50C4A936B0BB1D06B9847E20574
:103B400004D5094A136C0BB1506C9847A30504D5F2
:103B5000054A936C0BB1D06C9847BDE81040FEF756
:103B6000DFBE00BF003C0140C8230220194B10B546
:103B70005C6904F47C425A61620504D5164A136DEF
:103B80000BB1506D9847230504D5134A936D0BB1C3
:103B9000D06D9847E00404D50F4A136E0BB1506EF8
:103BA0009847A10404D50C4A936E0BB1D06E984788
:103BB000620404D5084A136F0BB1506F9847230471
:103BC00004D5054A936F0BB1D06F9847BDE81040FC
:103BD000FEF7A6BE003C0140C823022008B50348FA
:103BE000FDF7DAFABDE80840FEF79ABE4824022045
:103BF00008B50348FDF7D0FABDE80840FEF790BECF
:103C0000B424022008B5FFF74DFEBDE80840FEF7DA
:103C100087BE0000062108B50846FFF79DFB062178
:103C20000720FFF799FB06210820FFF795FB0621E7
:103C30000920FFF791FB06210A20FFF78DFB0621E3
:103C40001720FFF789FB06212820FFF785FB0721B6
:103C50001C20FFF781FB0C212620FFF77DFB0C21A8
:103C60005220BDE80840FFF777BB000008B5FFF71A
:103C70002FFEFDF7C7F9FDF7A9FCFDF77FFEFDF765
:103C800053FDFFF7E9FDBDE80840FFF747BD000021
:103C9000034611F8012B03F8012B002AF9D17047D4
:103CA0001210121312110000D82A022048240220F8
:103CB000B424022053544D3332463F3F3F3F3F3FF1
:103CC0000053544D333246375B347C355D780053B6
:103CD000544D333246375B367C375D780000000048
:103CE000009600000000000000000000000000003E
:103CF0000000000000000000000000009515000812
:103D000081150008BD150008A9150008B5150008A3
:103D1000A11500088D15000879150008C9150008BF
:103D200000000000A11600088D160008C916000842
:103D3000B5160008C1160008AD160008991600084F
:103D4000851600082517000800000000010000008B
:103D5000000000006D61696E00000000743D000805
:103D600060290220D82A0220010000003520000826
:103D70000000000069646C650000000002000000A3
:103D800000000000CD180008351900084000400070
:103D9000702F0220802F022002000000000000008F
:103DA0000300000000000000791900080000000076
:103DB00010000000902F0220000000000100000011
:103DC000000000003432022001010200486F6C79CB
:103DD00062726F0025424F415244252D424C00250E
:103DE00053455249414C2500E9230008512300085E
:103DF00039180008CD23000843000000003E0008E9
:103E000009024300020100C032090400000102025D
:103E10000100052400100105240100010424020210
:103E20000524060001070582030800FF09040100BC
:103E3000020A000000070501024000000705810298
:103E400040000000120000004C3E0008120110016A
:103E50000200004062314E00000201020301000036
:103E60000403090425424F41524425005069783328
:103E700032763500303132333435363738394142D5
:103E80004344454600000000008000000080000020
:103E9000008000000080000000000200000004001C
:103EA0000000040000000400000004000000040002
:103EB000000004000000040000000000D91A0008FF
:103EC000B91D0008651E000840004000AC32022009
:103ED000AC32022001000000BC3202208000000051
:103EE00040010000050000000000802A00000000E2
:103EF000AAAAAAAA00000000FFFF0000000000001C
:103F000000A00A000000000000000000AAAAAAAA5F
:103F100000000000FFFF00000000000000000000A3
:103F20000050000000000000AAAAAAAA0000000099
:103F3000FFFF0000000000000000000080290000DA
:103F400000000000AAAAAAAA40150000FFFF000076
:103F50000070700700000000000002000000000078
:103F6000AAAAAAAA00000100FFFF000000000000AA
:103F70000800000050255000000000000AA2AAAA74
:103F800050155000FFFF0000000000080000000076
:103F90000000100000000000AAAAAAAA0000100059
:103FA000FFFF00000000000000000000000400000F
:103FB00000000000AAAAAAAA00040000FFFF000057
:103FC000000000000000000000515100000000004F
:103FD000AAAAAAAA00515100FFFF00000000000099
:103FE00000000000000000000000000000000000D1
:103FF00000000000000000000000000000000000C1
:1040000000000000000000000000000000000000B0
:1040100000000000000000000000000000000000A0
:10402000FF00000000000000B43C00083F0000005A
:1040300049040000C13C00083F000000510400009A
:10404000CF3C00083F000000009600000000080080
:1040500004000000603E00080000000000000000B6
:104060000000000000000000000000000000000050
:10407000FFFFFFFFFFFFFFFFFFFFFFFFFFFFFFFF50
:10408000FFFFFFFFFFFFFFFFFFFFFFFFFFFFFFFF40
:10409000FFFFFFFFFFFFFFFFFFFFFFFFFFFFFFFF30
:1080000000060220DD8C00083D440F089182000824
:10801000B9430F08B1430F08B5430F08DF8C0008C0
:10802000DF8C0008DF8C0008DF8C000899C515087C
:10803000DF8C0008DF8C0008DF8C0008DF8C000874
:10804000DF8C0008DF8C0008DF8C0008DF8C000864
:10805000DF8C0008DF8C0008D53F1608FD3F1608AE
:10806000254016084D4016087540160805D015081D
:108070002DD0150859D0150885D01508B1D0150890
:10808000D9D0150805D1150871CE1508C5320F08CD
:10809000F5320F0825330F08DF8C00089D401608C5
:1080A000FD411608114216082542160829421608F5
:1080B0003D421608DF8C00084D421608DDD7150832
:1080C00045D81508ADD8150815D91508DF8C000856
:1080D000DF8C000871411608854116089941160881
:1080E00001411608DF8C0008DF8C00086142160889
:1080F000DF8C0008DF8C0008DF8C000831D1150808
:10810000DF8C000809E01508DF8C0008DF8C000810
:10811000AD411608DF8C0008DF8C0008DF8C0008FA
:108120005DD1150885D11508B1D11508DDD1150827
:1081300009D21508DF8C0008DF8C000855330F08C2
:1081400085330F08B5330F08DF8C0008353A160861
:1081500031D215085DD2150889D21508C14116081B
:108160007DD91508E5D91508DF8C0008DF8C0008DB
:10817000DF8C0008DF8C0008DF8C0008DF8C000833
:10818000DF8C0008DF8C0008D5411608E94116088D
:10819000DF8C0008DF8C0008DF8C0008DF8C000813
:1081A000DF8C0008DF8C0008DF8C0008DF8C000803
:1081B000DF8C0008DF8C0008DF8C00084DDA150822
:1081C000B5DA1508DF8C0008DF8C0008DF8C0008AA
:1081D000DF8C0008DF8C0008DF8C0008DF8C0008D3
:1081E000DF8C0008DF8C0008DF8C0008DF8C0008C3
:1081F000DF8C0008DF8C0008DF8C0008DF8C0008B3
:10820000D1C80008F5050108954C0108D1BD010849
:108210009536020885190308E9C4030821470508B3
:10822000F9AB070861B207089D57080861D4080830
:1082300015DD080899E00808F1910908291B0A08CA
:1082400065520B0805B50B0861C40B0885390D088C
:10825000E5360F08253C0F0869580F0829FB100860
:108260002D9B11084DEC11087D681208C5CC130830
:10827000351114083D2E140801701408498914089A
:10828000F5B5140869C2140835FA1408090415086C
:10829000EFF30383EFF30982EFF30881DFF814D0E3
:1082A0002DE9FE4F684600F0EFFFBDE8FE4F8D461A
:1082B00070470000DC310220F1EE101AA0EC200A19
:1082C00001607047A0EC108A704700BF81F0004148
:1082D00002E000BF83F0004330B54FEA41044FEAAB
:1082E000430594EA050F08BF90EA020F1FBF54EA46
:1082F000000C55EA020C7FEA645C7FEA655C00F0E2
:10830000E2804FEA5454D4EB5555B8BF6D420CDDB2
:108310002C4480EA020281EA030382EA000083EA35
:10832000010180EA020281EA0303362D88BF30BDD5
:1083300011F0004F4FEA01314FF4801C4CEA11312B
:1083400002D0404261EB410113F0004F4FEA03338A
:108350004CEA133302D0524263EB430394EA050F15
:1083600000F0A780A4F10104D5F1200E0DDB02FA84
:108370000EFC22FA05F2801841F1000103FA0EF218
:10838000801843FA05F359410EE0A5F120050EF1DE
:10839000200E012A03FA0EFC28BF4CF0020C43FA0F
:1083A00005F3C01851EBE37101F0004507D54FF01C
:1083B000000EDCF1000C7EEB00006EEB0101B1F56C
:1083C000801F1BD3B1F5001F0CD349085FEA3000B2
:1083D0004FEA3C0C04F101044FEA445212F5800FBD
:1083E00080F09A80BCF1004F08BF5FEA500C50F15A
:1083F000000041EB045141EA050130BD5FEA4C0C3D
:10840000404141EB0101013C28BFB1F5801FE9D299
:1084100091F0000F04BF01460020B1FA81F308BFBC
:108420002033A3F10B03B3F120020CDA0C3208DD88
:1084300002F1140CC2F10C0201FA0CF021FA02F163
:108440000CE002F11402D8BFC2F1200C01FA02F1D3
:1084500020FA0CFCDCBF41EA0C019040E41AA2BFF8
:1084600001EB0451294330BD6FEA04041F3C1CDAC0
:108470000C340EDC04F11404C4F1200220FA04F0E0
:1084800001FA02F340EA030021FA04F345EA03018A
:1084900030BDC4F10C04C4F1200220FA02F001FA4C
:1084A00004F340EA0300294630BD21FA04F02946CE
:1084B00030BD94F0000F83F4801306BF81F4801167
:1084C0000134013D4EE77FEA645C18BF7FEA655CDA
:1084D00029D094EA050F08BF90EA020F05D054EAAC
:1084E000000C04BF1946104630BD91EA030F1EBFB1
:1084F0000021002030BD5FEA545C05D140004941B5
:1085000028BF41F0004130BD14F580043CBF01F5A7
:10851000801130BD01F0004545F0FE4141F470018D
:108520004FF0000030BD7FEA645C1ABF1946104668
:108530007FEA655C1CBF0B46024650EA013406BF69
:1085400052EA033591EA030F41F4002130BD00BF28
:1085500090F0000F04BF0021704730B54FF48064E5
:1085600004F132044FF000054FF0000150E700BF66
:1085700090F0000F04BF0021704730B54FF48064C5
:1085800004F1320410F0004548BF40424FF00001B2
:108590003EE700BF42004FEAE2014FEA31014FEAF5
:1085A00002701FBF12F07F4393F07F4F81F0605144
:1085B000704732F07F4208BF704793F07F4F04BF8F
:1085C00041F40021704730B54FF4607401F000456C
:1085D00021F000411CE700BF50EA010208BF7047CC
:1085E00030B54FF000050AE050EA010208BF7047BD
:1085F00030B511F0004502D5404261EB41014FF426
:10860000806404F132045FEA915C3FF4D8AE4FF02D
:1086100003025FEADC0C18BF03325FEADC0C18BF10
:10862000033202EBDC02C2F1200300FA03FC20FA61
:1086300002F001FA03FE40EA0E0021FA02F11444AE
:10864000BDE600BF80F0004002E000BF81F00041C5
:1086500042001FBF5FEA410392EA030F7FEA226CE8
:108660007FEA236C6AD04FEA1262D2EB1363C1BF78
:10867000D218414048404140B8BF5B42192B88BFE7
:10868000704710F0004F40F4000020F07F4018BF0A
:10869000404211F0004F41F4000121F07F4118BF2A
:1086A000494292EA030F3FD0A2F1010241FA03FCD2
:1086B00010EB0C00C3F1200301FA03F100F00043BA
:1086C00002D5494260EB4000B0F5000F13D3B0F182
:1086D000807F06D340084FEA310102F10102FE2AF1
:1086E00051D2B1F1004F40EBC25008BF20F0010061
:1086F00040EA03007047490040EB0000013A28BF00
:10870000B0F5000FEDD2B0FA80FCACF1080CB2EB82
:108710000C0200FA0CF0AABF00EBC2505242184300
:10872000BCBFD0401843704792F0000F81F40001A5
:1087300006BF80F400000132013BB5E74FEA410378
:108740007FEA226C18BF7FEA236C21D092EA030FE4
:1087500004D092F0000F08BF0846704790EA010F5E
:108760001CBF0020704712F07F4F04D1400028BF8B
:1087700040F00040704712F100723CBF00F500006D
:10878000704700F0004343F0FE4040F400007047A3
:108790007FEA226216BF08467FEA2363014642024F
:1087A00006BF5FEA412390EA010F40F48000704762
:1087B0004FF0000304E000BF10F0004348BF404208
:1087C0005FEA000C08BF704743F0964301464FF044
:1087D00000001CE050EA010208BF70474FF00003A0
:1087E0000AE000BF50EA010208BF704711F00043E1
:1087F00002D5404261EB41015FEA010C02BF8446B1
:108800000146002043F0B64308BFA3F18053A3F50F
:108810000003BCFA8CF2083AA3EBC25310DB01FA56
:1088200002FC634400FA02FCC2F12002BCF1004FDA
:1088300020FA02F243EB020008BF20F0010070476B
:1088400002F1200201FA02FCC2F1200250EA4C00BF
:1088500021FA02F243EB020008BF20EADC70704705
:108860007BB972B90029BEBF00204FF0004106E07D
:1088700008BF00281CBF6FF000414FF0FF3000F030
:108880002BBAADF1080C6DE904CE002909DB002BF1
:108890001ADB00F0B9F8DDF804E0DDE9022304B0EA
:1088A0007047404261EB4101002B1BDB00F0ACF84C
:1088B000DDF804E0DDE9022304B0404261EB410150
:1088C000524263EB43037047524263EB430300F0B1
:1088D0009BF8DDF804E0DDE9022304B0404261EBDF
:1088E00041017047524263EB430300F08DF8DDF81D
:1088F00004E0DDE9022304B0524263EB4303704716
:1089000053B94AB9002908BF00281CBF4FF0FF31F6
:108910004FF0FF3000F0E0B9ADF1080C6DE904CE86
:1089200000F072F8DDF804E0DDE9022304B07047DE
:10893000430803F05533C01A830803F0333300F0C3
:108940003330184400EB101000F00F3000EB002023
:1089500000EB0040000E704708B502460B4643ECA2
:10896000172BB5EEC07BF1EE10FA03D4BDE808403A
:1089700000F02AB8B1EE477B51EC170B00F024F859
:10898000404261EB410108BD9FED0B6B07EE900A81
:108990009FED0B5BB7EEE77A27EE066BBCEEC66B7E
:1089A000B8EE464BA4EE457BFCEEC77B16EE101AE4
:1089B00017EE900A704700BF000000000000F03D75
:1089C000000000000000F0419FED0B6B41EC170B25
:1089D0009FED0B5B27EE066BBCEEC66BB8EE464B0D
:1089E000A4EE457BFCEEC77B16EE101A17EE900A3C
:1089F000704700BFAFF30080000000000000F03DB2
:108A0000000000000000F0412DE9F047089D0446F9
:108A10008E46002B4DD18A42944669D9B2FA82F231
:108A200052B101FA02F3C2F1200120FA01F10CFA6D
:108A300002FC41EA030E94404FEA1C48210CBEFBA5
:108A4000F8F61FFA8CF708FB16E341EA034306FB2E
:108A500007F199420AD91CEB030306F1FF3080F0BD
:108A60001F81994240F21C81023E63445B1AA4B20A
:108A7000B3FBF8F008FB103344EA034400FB07F7AC
:108A8000A7420AD91CEB040400F1FF3380F00A81ED
:108A9000A74240F207816444023840EA0640E41BE2
:108AA00000261DB1D4400023C5E900433146BDE88E
:108AB000F0878B4209D9002D00F0EF800026C5E930
:108AC000000130463146BDE8F087B3FA83F6002E48
:108AD0004AD18B4202D3824200F2F980841A61EBC0
:108AE000030301209E46002DE0D0C5E9004EDDE7DE
:108AF00002B9FFDEB2FA82F2002A40F09280A1EBC6
:108B00000C014FEA1C471FFA8CFE0126200CB1FB1A
:108B1000F7F307FB131140EA01410EFB03F0884213
:108B200008D91CEB010103F1FF3802D2884200F2A0
:108B3000CB804346091AA4B2B1FBF7F007FB101132
:108B400044EA01440EFB00FEA64508D91CEB0404D0
:108B500000F1FF3102D2A64500F2BB800846A4EB2B
:108B60000E0440EA03409CE7C6F12007B34022FA16
:108B700007FC4CEA030C20FA07F401FA06F31C4345
:108B8000F9404FEA1C4900FA06F3B1FBF9F8200C52
:108B90001FFA8CFE09FB181140EA014108FB0EF098
:108BA000884202FA06F20BD91CEB010108F1FF3AE8
:108BB00080F08880884240F28580A8F102086144F4
:108BC000091AA4B2B1FBF9F009FB101144EA014102
:108BD00000FB0EFE8E4508D91CEB010100F1FF34AD
:108BE0006CD28E456AD90238614440EA0840A0FB45
:108BF0000294A1EB0E01A142C846A64656D353D01B
:108C00005DB1B3EB080261EB0E0101FA07F722FA3E
:108C100006F3F1401F43C5E9007100263146BDE867
:108C2000F087C2F12003D8400CFA02FC21FA03F3CA
:108C3000914001434FEA1C471FFA8CFEB3FBF7F04B
:108C400007FB10360B0C43EA064300FB0EF69E4270
:108C500004FA02F408D91CEB030300F1FF382FD209
:108C60009E422DD9023863449B1B89B2B3FBF7F6B1
:108C700007FB163341EA034106FB0EF38B4208D98A
:108C80001CEB010106F1FF3816D28B4214D9023ECB
:108C90006144C91A46EA004638E72E46284605E7E9
:108CA0000646E3E61846F8E64B45A9D2B9EB0208BA
:108CB00064EB0C0E0138A3E74646EAE7204694E74A
:108CC0004046D1E7D0467BE7023B614432E730467D
:108CD00009E76444023842E7704700BF02E000F051
:108CE00000F8FEE772B6374880F30888364880F30C
:108CF000098836483649086040F20000CCF200008E
:108D00004EF63471CEF200010860BFF34F8FBFF30F
:108D10006F8F40F20000C0F2F0004EF68851CEF2A4
:108D200000010860BFF34F8FBFF36F8F4FF000005B
:108D3000E1EE100A4EF63C71CEF20001086006200A
:108D400080F31488BFF36F8F5AF18CFA59F1ACF8A5
:108D50004FF055301F491B4A91423CBF41F8040B6C
:108D6000FAE71D49184A91423CBF41F8040BFAE763
:108D70001A491B4A1B4B9A423EBF51F8040B42F85A
:108D8000040BF8E700201849184A91423CBF41F80B
:108D9000040BFAE75AF1A8FA59F190F9144C154D61
:108DA000AC4203DA54F8041B8847F9E703F080FD6E
:108DB000114C124DAC4203DA54F8041B8847F9E712
:108DC0005AF190BA0006022000220220008000081A
:108DD00008ED00E00000022000060220C0241B086D
:108DE00000220220E42F0220E82F02200410042099
:108DF000008200089082000890820008908200089B
:108E00002DE9F04F2DED108AC1F80CD0D0F80CD020
:108E1000BDEC108ABDE8F08F002383F3118828464B
:108E2000A047002058F16EFDFEE758F16DFB00DF12
:108E3000FEE7000070B54FF0FF0C4CF4E06C1CEA4C
:108E400011541DBF1CEA135594EA0C0F95EA0C0F40
:108E500000F0DEF82C4481EA030621EA4C5123EAB3
:108E60004C5350EA013518BF52EA033541F48011E2
:108E700043F4801338D0A0FB02CE4FF00005E1FB95
:108E800002E506F00042E0FB03E54FF00006E1FBDF
:108E900003569CF0000F18BF4EF0010EA4F1FF0422
:108EA000B6F5007F64F5407404D25FEA4E0E6D4162
:108EB00046EB060642EAC62141EA55514FEAC52073
:108EC00040EA5E504FEACE2EB4F1FD0C88BFBCF5EF
:108ED000E06F1ED8BEF1004F08BF5FEA500E50F1A0
:108EE000000041EB045170BD06F0004646EA010166
:108EF00040EA020081EA0301B4EB5C04C2BFD4EB98
:108F00000C0541EA045170BD41F480114FF0000E90
:108F1000013C00F3AB8014F1360FDEBF002001F0FE
:108F2000004170BDC4F10004203C35DA0C341BDC78
:108F300004F11404C4F1200500FA05F320FA04F04A
:108F400001FA05F240EA020001F0004221F000417E
:108F500010EBD37021FA04F642EB06015EEA430EF1
:108F600008BF20EAD37070BDC4F10C04C4F1200521
:108F700000FA04F320FA05F001FA04F240EA0200D4
:108F800001F0004110EBD37041F100015EEA430EA5
:108F900008BF20EAD37070BDC4F1200500FA05F2C5
:108FA0004EEA020E20FA04F301FA05F243EA020344
:108FB00021FA04F001F0004121FA04F220EA020053
:108FC00000EBD3705EEA430E08BF20EAD37070BD99
:108FD00094F0000F0FD101F00046400041EB010179
:108FE00011F4801F08BF013CF7D041EA060195F05B
:108FF000000F18BF704703F00046520043EB030315
:1090000013F4801F08BF013DF7D043EA0603704701
:1090100094EA0C0F0CEA135518BF95EA0C0F0CD00C
:1090200050EA410618BF52EA4306D1D181EA030152
:1090300001F000414FF0000070BD50EA410606BF4C
:109040001046194652EA430619D094EA0C0F02D191
:1090500050EA013613D195EA0C0F05D152EA0336D6
:109060001CBF104619460AD181EA030101F00041F4
:1090700041F0FE4141F470014FF0000070BD41F03D
:10908000FE4141F4780170BD4FEA410212F5001231
:1090900015D211D56FF47873B3EB625212D94FEA3F
:1090A000C12343F0004343EA505311F0004F23FA29
:1090B00002F018BF404270474FF00000704750EA7E
:1090C000013005D111F0004008BF6FF0004070473B
:1090D0004FF00000704700BF4FEA4102B2F1E04399
:1090E00024BFB3F5001CDCF1FE5C0DD901F0004C8F
:1090F0004FEAC0024CEA5070B2F1004F40EB8300DF
:1091000008BF20F00100704711F0804F21D113F10A
:109110003872BCBF01F00040704741F480114FEA43
:109120005252C2F11802C2F1200C10FA0CF320FACC
:1091300002F018BF40F001004FEAC1234FEAD323E9
:1091400003FA0CFC40EA0C0023FA02F34FEA430353
:10915000CCE77FEA625307D150EA01331EBF4FF0DC
:10916000FE4040F44000704701F0004040F0FE40F7
:1091700040F40000704700BF01F0FF01102A2BDB14
:1091800010F0070F08D010F8013B013A8B422DD0A8
:1091900010F0070F42B3F6D1F0B441EA012141EAE1
:1091A000014122F007047FF000070023F0E8025697
:1091B000083C85EA010586EA010685FA47F5A3FA27
:1091C00087F586FA47F6A5FA87F68EB9EED1F0BC98
:1091D00001F0FF0102F0070232B110F8013B013A41
:1091E00083EA010313B1F8D10020704701387047BA
:1091F000002D06BF35460338073815F0010F07D19B
:10920000013015F4807F02BF013015F4C03F0130FA
:10921000F0BC0138704700BFEC46A0E8F05F4FF0AB
:1092200000007047B0E8F05FE546080008BF012085
:10923000704700BF10F8012B11F8013B012A28BF2D
:109240009A42F7D0D01A7047034613F8012B002A30
:10925000FBD1181A01387047A8B110B504460AE0CE
:1092600000F082FA14F8041C54E903031B1AB3FB40
:10927000F1F200F079FA204654F80C3B0822012163
:109280000133EDD110BD70472DE9F04F0023A7B099
:109290000293C36A009013F0040FD0E9002118BFB5
:1092A0000A46D9064FF0E021D3694CBF02F12000F5
:1092B00002F168000192DB0903F004030343039306
:1092C000D1F8883D03F4A003B3F5A00F01D1012329
:1092D000029393694FF004094F4D4FF001081B882A
:1092E0004E4C03F47F43A3F53E43B3FA83F35B098B
:1092F000049329E000F036F9FFF7AEFF4FF0E023CA
:10930000D3F8003D03F47023B3F5402F0ED0444A48
:109310004FF0FF3305A88DF81C90059214328DF89C
:1093200028800692CDE90833FFF796FF2B68A34209
:1093300006D03C4B0422012105A8059300F014FA45
:1093400000F05CFB00285ED103A82C6000F0F8FB65
:1093500004220121344800F007FA0422012102A866
:1093600000F002FA10220121019800F0FDF90098A6
:10937000202201210C3000F0F7F90198042201218C
:10938000103000F0F1F90422012103A800F0ECF9FB
:1093900001980C220121143000F0E6F90C22012181
:1093A000009800F0E1F9029BDA07A3D5009BDB6A85
:1093B000DB0622D415A80DF1140AFEF783FFDDF8B1
:1093C00004E0D4460EF120060EF1600B3068103632
:1093D00056F80C1C674656F8082C0CF1100C56F881
:1093E000043C5E450FC7F1D1DEF86030259384223E
:1093F0005046012100F0B8F97CE70DF1140A5046FF
:10940000FEF75AFFF3E7049B1BB1019A93690233FD
:10941000936127B0BDE8F08FE82F0220ED55CEAC68
:1094200028ED00E0ACCE55ED94D5160838B52720D0
:109430003B2556F1E1F80F4B0F4A4FF0FF34196A04
:109440000D2041F480211962196A21F480211962EA
:10945000196A196C41F480211964196E41F4802154
:10946000196601211B6E054BD560146210601970DE
:1094700038BD00BF003802400048004014320220CE
:10948000002953D02DE9F84F074689460026284D7C
:10949000DFF8A480274C17F801AB2B784FEA1A129B
:1094A00018F802B0002B3CD0C4F828B0E369580685
:1094B00004D459F19DFEE3695906FAD50AF00F0A62
:1094C0002B7818F80AA04BB3C4F828A0E3695A0611
:1094D00004D459F18DFEE3695B06FAD50136B14536
:1094E00022D03107D7D12B784FF00D0BDFF84CA0ED
:1094F0008BB1C4F828B0E3695A0604D459F178FE58
:10950000E3695B06FAD51AF801BFBBF1000FC2D0C0
:109510002B78002BEDD1FFF789FFEAE7FFF786FFF5
:10952000D2E7FFF783FFBFE7BDE8F88F704700BFC2
:1095300014320220004800401CD61608B013180848
:10954000014B1868704700BFFCFF1F08014B024821
:10955000C01A7047C0321B0800002008004870473E
:10956000C0321B08724943F69822724B09682DE9F4
:10957000F04F0A441B7883B002EB030957F1C2FE97
:10958000002800F09B806C4F04466C4B0225DFF8EE
:10959000D4810126FF1ADFF8C8A12EE018460191F8
:1095A00059F1A2FA0199A8BB206AAB460BF101035D
:1095B0000BEB4B0E04F13C058944DBB201440AEB92
:1095C0008E0CB94503EB43034AF82E40CCF8045007
:1095D0000BF102058CF808600AEB830CEDB24AF837
:1095E00023008CF80860CCF804104FD2204657F1C5
:1095F00099FE0446E8B13A2D1BD8206A404505D0B3
:10960000211AE369002BC9D1AB46CFE74C4BA3EB42
:109610000801F6E705EB450C01350AEB8C005FFA13
:1096200085FB0672E3694AF82C300D334360206AEB
:10963000BCE7B7EB090129D40BF1030B414E4248BB
:109640002B465FFA8BF5341A8C424CDC04EB090292
:1096500003EB4303BF1A4AF8230001220AEB8303FA
:10966000002F1A723A465E6010DB3848384BC11A38
:10967000914205EB450249DD01354AF822301F448D
:109680000AEB8203EDB201225F601A723B2D1ED9F4
:109690004FF0FF330122CAF8C4328AF8CC22CAF84C
:1096A000C8322C4B1B782BB12B4A2C4B12681B68F1
:1096B000CAE900232A4803B0BDE8F08F1E4F1F4BB4
:1096C000FF1AB7EB09012BD50225DFF894A005EBB3
:1096D00045054FF0FF3201210AEB85034AF82520AA
:1096E00019725A60DDE703EB4303014401224AF893
:1096F00023000AEB8303154859601A720022144BA9
:109700001746C11A914205EB4502B5DC4AF82230F2
:1097100001350AEB82030122EDB258601A72B5E7F7
:10972000084E032508480223DFF834A0341A8BE7DB
:1097300004320220DC31022000002008C0321B0865
:109740000022022004100420E82F0220000008203C
:1097500008100420002202200832022000320220D9
:1097600004220220000602209A4B1B782DE9F04FBC
:10977000824685B00E4693462BB9974B1B782BBB80
:1097800005B0BDE8F08F022900F0EE80042900F05A
:10979000B580012900F0AE80904D2B780D27DFF8C1
:1097A00058828F4C7BB1A762E3695A0604D459F101
:1097B0001FFDE3695B06FAD518F8017F002FDCD0A6
:1097C0002B78002BEFD1FFF731FEECE7854B4FF004
:1097D0000009854A9B1A0093CB45D1D0834F844C16
:1097E00038682578031D009A2B44934279D2202DA6
:1097F00051D0022E24D0042E0DD0012EECD123788E
:10980000DFF8F0815A1C22701AF8092009F10109C9
:1098100008F80320E0E7DFF8DC81002543462078E4
:109820009AF80010421CE9400835D2B208F800103E
:10983000202A227018D0202DF1D109F10109CBE79F
:1098400025789AF80030DFF8AC8108F8053001354A
:10985000EDB2202D257030D06B1C09F10109237069
:10986000002308F80530B7E738685F4901920844DB
:10987000194658F101FF39684FF00003019A203171
:1098800023705C4B3960002118465FF16DF859F187
:10989000AFFC584BCFE7544B2A465649184458F171
:1098A000EBFE3B6800212A462033524821703B6082
:1098B0005FF15AF859F19CFC9BE74B4B2A463868FC
:1098C0004146184458F1D8FE3B6800212A4620330F
:1098D000404621703B605FF147F859F189FC2578DB
:1098E000BAE7444A4FF0FF312023D161237005B01D
:1098F000BDE8F08F1146FFF7C3FD4DE7002A3FF4A6
:109900004BAF02460027354D0DF10C0852F8043BD1
:10991000334C009203930191013704214046FFF735
:10992000AFFDBB451ED0009ABE0752F8043B009223
:109930000393F1D12A780D26DFF8BC907AB1A662A4
:10994000E369580604D459F153FCE3695906FAD582
:1099500019F8016F002EDFD02A78002AEFD1FFF727
:1099600065FDECE7019E18E7002A3FF415AF0246BB
:1099700000271A4D0DF10C0832F8023B184C0092EA
:10998000ADF80C300191013702214046FFF778FD18
:10999000BB45E7D0009A790732F8023B0092ADF858
:1099A0000C30F0D12A780D26DFF84C907AB1A662FF
:1099B000E3695A0604D459F11BFCE3695B06FAD546
:1099C00019F8016F002EDED02A78002AEFD1FFF7B8
:1099D0002DFDECE7DD3102200022022014320220AE
:1099E0000048004000002008C0321B08043202205A
:1099F000DC310220E0310220B0131808F8B5324BF8
:109A00001A782AB9314A1078F0B901221A70F8BDD3
:109A10002F4E0D252F4F304C3B7893B1A562E36953
:109A20005A0604D459F1E4FBE3695B06FAD516F84B
:109A3000015F002DF0D1294B5868003818BF012074
